{
  "contractName": "Escrow",
  "abi": [
    {
      "inputs": [
        {
          "internalType": "address",
          "name": "_realEstateAddress",
          "type": "address"
        },
        {
          "internalType": "address",
          "name": "_seller",
          "type": "address"
        }
      ],
      "stateMutability": "nonpayable",
      "type": "constructor"
    },
    {
      "anonymous": false,
      "inputs": [
        {
          "indexed": true,
          "internalType": "uint256",
          "name": "propertyId",
          "type": "uint256"
        },
        {
          "indexed": true,
          "internalType": "address",
          "name": "buyer",
          "type": "address"
        }
      ],
      "name": "SaleApproved",
      "type": "event"
    },
    {
      "inputs": [],
      "name": "realEstateContract",
      "outputs": [
        {
          "internalType": "contract IRealEstate",
          "name": "",
          "type": "address"
        }
      ],
      "stateMutability": "view",
      "type": "function"
    },
    {
      "inputs": [],
      "name": "seller",
      "outputs": [
        {
          "internalType": "address",
          "name": "",
          "type": "address"
        }
      ],
      "stateMutability": "view",
      "type": "function"
    },
    {
      "inputs": [
        {
          "internalType": "uint256",
          "name": "",
          "type": "uint256"
        }
      ],
      "name": "transactions",
      "outputs": [
        {
          "internalType": "address",
          "name": "buyer",
          "type": "address"
        },
        {
          "internalType": "uint256",
          "name": "price",
          "type": "uint256"
        },
        {
          "internalType": "uint256",
          "name": "deposit",
          "type": "uint256"
        },
        {
          "internalType": "bool",
          "name": "approved",
          "type": "bool"
        }
      ],
      "stateMutability": "view",
      "type": "function"
    },
    {
      "inputs": [
        {
          "internalType": "uint256",
          "name": "_propertyId",
          "type": "uint256"
        }
      ],
      "name": "deposit",
      "outputs": [],
      "stateMutability": "payable",
      "type": "function"
    },
    {
      "inputs": [
        {
          "internalType": "uint256",
          "name": "_propertyId",
          "type": "uint256"
        }
      ],
      "name": "approveSale",
      "outputs": [],
      "stateMutability": "nonpayable",
      "type": "function"
    },
    {
      "inputs": [
        {
          "internalType": "uint256",
          "name": "_propertyId",
          "type": "uint256"
        }
      ],
      "name": "finalize",
      "outputs": [],
      "stateMutability": "nonpayable",
      "type": "function"
    }
  ],
  "bytecode": "0x60a060405234801561000f575f80fd5b5060405161059238038061059283398101604081905261002e9161006d565b5f80546001600160a01b0319166001600160a01b039384161790551660805261009e565b80516001600160a01b0381168114610068575f80fd5b919050565b5f806040838503121561007e575f80fd5b61008783610052565b915061009560208401610052565b90509250929050565b6080516104d66100bc5f395f8181608a015261023601526104d65ff3fe608060405260043610610054575f3560e01c806305261aea1461005857806308551a531461007957806314a72feb146100c957806348b76431146100e85780639ace38c214610106578063b6b55f2514610182575b5f80fd5b348015610063575f80fd5b50610077610072366004610489565b610195565b005b348015610084575f80fd5b506100ac7f000000000000000000000000000000000000000000000000000000000000000081565b6040516001600160a01b0390911681526020015b60405180910390f35b3480156100d4575f80fd5b506100776100e3366004610489565b6102e0565b3480156100f3575f80fd5b505f546100ac906001600160a01b031681565b348015610111575f80fd5b50610156610120366004610489565b600160208190525f918252604090912080549181015460028201546003909201546001600160a01b039093169290919060ff1684565b604080516001600160a01b039095168552602085019390935291830152151560608201526080016100c0565b610077610190366004610489565b6103be565b5f81815260016020818152604092839020835160808101855281546001600160a01b03168152928101549183019190915260028101549282019290925260039091015460ff161515606082018190526102245760405162461bcd60e51b815260206004820152600c60248201526b139bdd08185c1c1c9bdd995960a21b60448201526064015b60405180910390fd5b60208101516040516001600160a01b037f0000000000000000000000000000000000000000000000000000000000000000169180156108fc02915f818181858888f1935050505015801561027a573d5f803e3d5ffd5b505f5481516040516329507f7360e01b8152600481018590526001600160a01b0391821660248201529116906329507f73906044015f604051808303815f87803b1580156102c6575f80fd5b505af11580156102d8573d5f803e3d5ffd5b505050505050565b5f818152600160205260409020546001600160a01b031633146103315760405162461bcd60e51b81526020600482015260096024820152682737ba10313abcb2b960b91b604482015260640161021b565b8061029a036103735760405162461bcd60e51b815260206004820152600e60248201526d105248119c985d5908105b195c9d60921b604482015260640161021b565b5f818152600160208190526040808320600301805460ff191690921790915551339183917f4dc60bf23e5a965cf059957e78d62c6c6cc8835ad6cea32928a940f447197cbc9190a350565b5f81815260016020819052604090912001543410156104145760405162461bcd60e51b8152602060048201526012602482015271496e73756666696369656e742066756e647360701b604482015260640161021b565b604080516080810182523381523460208083018281528385019283525f6060850181815296815260019283905294909420925183546001600160a01b0319166001600160a01b039091161783559251928201929092559051600282015590516003909101805460ff1916911515919091179055565b5f60208284031215610499575f80fd5b503591905056fea26469706673582212205bb0ba910ceeed5eebe2c6674a5488185d8c48f39bf65793370bf57dbc65dad464736f6c63430008140033",
  "immutableReferences": {
    "14": [
      {
        "length": 32,
        "start": 138
      },
      {
        "length": 32,
        "start": 566
      }
    ]
  },
  "source": "// SPDX-License-Identifier: MIT\r\npragma solidity ^0.8.0;\r\n\r\ninterface IRealEstate {\r\n    function transferOwnership(uint256 _id, address _to) external;\r\n}\r\n\r\ncontract Escrow {\r\n    IRealEstate public realEstateContract;\r\n    address public immutable seller;\r\n\r\n    struct Transaction {\r\n        address buyer;\r\n        uint256 price;\r\n        uint256 deposit;\r\n        bool approved;\r\n    }\r\n\r\n    mapping(uint256 => Transaction) public transactions;\r\n\r\n    event SaleApproved(uint256 indexed propertyId, address indexed buyer);\r\n\r\n    constructor(address _realEstateAddress, address _seller) {\r\n        realEstateContract = IRealEstate(_realEstateAddress);\r\n        seller = _seller;\r\n    }\r\n\r\n    /// @notice Buyer deposits payment (simplified for hackathon)\r\n    function deposit(uint256 _propertyId) external payable {\r\n        require(msg.value >= transactions[_propertyId].price, \"Insufficient funds\");\r\n        transactions[_propertyId] = Transaction(msg.sender, msg.value, msg.value, false);\r\n    }\r\n\r\n    /// @notice Mock AI validation + buyer approval\r\n    function approveSale(uint256 _propertyId) external {\r\n        require(msg.sender == transactions[_propertyId].buyer, \"Not buyer\");\r\n        require(_propertyId != 666, \"AI Fraud Alert\"); // Mock AI check\r\n        transactions[_propertyId].approved = true;\r\n        emit SaleApproved(_propertyId, msg.sender);\r\n    }\r\n\r\n    /// @notice Finalize sale if AI and buyer approved\r\n    function finalize(uint256 _propertyId) external {\r\n        Transaction memory txn = transactions[_propertyId];\r\n        require(txn.approved, \"Not approved\");\r\n\r\n        // Transfer funds to seller (simplified)\r\n        payable(seller).transfer(txn.price);\r\n\r\n        // Transfer NFT ownership\r\n        realEstateContract.transferOwnership(_propertyId, txn.buyer);\r\n    }\r\n}",
  "sourcePath": "C:\\Users\\admin\\Desktop\\20k-ka-kya-kare\\blockchain\\contracts\\Escrow.sol",
  "compiler": {
    "name": "solc",
    "version": "0.8.20+commit.a1b79de6.Emscripten.clang"
  },
  "schemaVersion": "3.4.16",
  "updatedAt": "2025-08-05T14:52:35.387Z",
  "devdoc": {
    "kind": "dev",
    "methods": {},
    "version": 1
  },
  "userdoc": {
    "kind": "user",
    "methods": {
      "approveSale(uint256)": {
        "notice": "Mock AI validation + buyer approval"
      },
      "deposit(uint256)": {
        "notice": "Buyer deposits payment (simplified for hackathon)"
      },
      "finalize(uint256)": {
        "notice": "Finalize sale if AI and buyer approved"
      }
    },
    "version": 1
  }
}