{
  "contractName": "RealEstateChain",
  "abi": [
    {
      "inputs": [
        {
          "internalType": "address",
          "name": "_aiValidator",
          "type": "address"
        }
      ],
      "stateMutability": "nonpayable",
      "type": "constructor"
    },
    {
      "anonymous": false,
      "inputs": [
        {
          "indexed": false,
          "internalType": "uint256",
          "name": "id",
          "type": "uint256"
        },
        {
          "indexed": false,
          "internalType": "address",
          "name": "by",
          "type": "address"
        },
        {
          "indexed": false,
          "internalType": "bool",
          "name": "isAI",
          "type": "bool"
        }
      ],
      "name": "ApprovalGiven",
      "type": "event"
    },
    {
      "anonymous": false,
      "inputs": [
        {
          "indexed": false,
          "internalType": "uint256",
          "name": "id",
          "type": "uint256"
        },
        {
          "indexed": false,
          "internalType": "uint256",
          "name": "price",
          "type": "uint256"
        }
      ],
      "name": "PropertyListed",
      "type": "event"
    },
    {
      "anonymous": false,
      "inputs": [
        {
          "indexed": false,
          "internalType": "uint256",
          "name": "id",
          "type": "uint256"
        },
        {
          "indexed": false,
          "internalType": "address",
          "name": "owner",
          "type": "address"
        },
        {
          "indexed": false,
          "internalType": "string",
          "name": "location",
          "type": "string"
        }
      ],
      "name": "PropertyRegistered",
      "type": "event"
    },
    {
      "anonymous": false,
      "inputs": [
        {
          "indexed": false,
          "internalType": "uint256",
          "name": "id",
          "type": "uint256"
        },
        {
          "indexed": false,
          "internalType": "address",
          "name": "from",
          "type": "address"
        },
        {
          "indexed": false,
          "internalType": "address",
          "name": "to",
          "type": "address"
        }
      ],
      "name": "PropertyTransferred",
      "type": "event"
    },
    {
      "inputs": [],
      "name": "aiValidator",
      "outputs": [
        {
          "internalType": "address",
          "name": "",
          "type": "address"
        }
      ],
      "stateMutability": "view",
      "type": "function"
    },
    {
      "inputs": [
        {
          "internalType": "uint256",
          "name": "",
          "type": "uint256"
        }
      ],
      "name": "properties",
      "outputs": [
        {
          "internalType": "address",
          "name": "owner",
          "type": "address"
        },
        {
          "internalType": "string",
          "name": "location",
          "type": "string"
        },
        {
          "internalType": "uint256",
          "name": "price",
          "type": "uint256"
        },
        {
          "internalType": "bool",
          "name": "isForSale",
          "type": "bool"
        },
        {
          "internalType": "bool",
          "name": "aiApproved",
          "type": "bool"
        },
        {
          "internalType": "bool",
          "name": "buyerApproved",
          "type": "bool"
        },
        {
          "internalType": "bool",
          "name": "sellerApproved",
          "type": "bool"
        }
      ],
      "stateMutability": "view",
      "type": "function"
    },
    {
      "inputs": [],
      "name": "propertyCount",
      "outputs": [
        {
          "internalType": "uint256",
          "name": "",
          "type": "uint256"
        }
      ],
      "stateMutability": "view",
      "type": "function"
    },
    {
      "inputs": [
        {
          "internalType": "string",
          "name": "_location",
          "type": "string"
        }
      ],
      "name": "registerProperty",
      "outputs": [],
      "stateMutability": "nonpayable",
      "type": "function"
    },
    {
      "inputs": [
        {
          "internalType": "uint256",
          "name": "_propertyId",
          "type": "uint256"
        },
        {
          "internalType": "uint256",
          "name": "_price",
          "type": "uint256"
        }
      ],
      "name": "listProperty",
      "outputs": [],
      "stateMutability": "nonpayable",
      "type": "function"
    },
    {
      "inputs": [
        {
          "internalType": "uint256",
          "name": "_propertyId",
          "type": "uint256"
        },
        {
          "internalType": "bool",
          "name": "_approval",
          "type": "bool"
        }
      ],
      "name": "approvePurchase",
      "outputs": [],
      "stateMutability": "nonpayable",
      "type": "function"
    },
    {
      "inputs": [
        {
          "internalType": "uint256",
          "name": "_propertyId",
          "type": "uint256"
        },
        {
          "internalType": "bool",
          "name": "_approval",
          "type": "bool"
        }
      ],
      "name": "aiApprove",
      "outputs": [],
      "stateMutability": "nonpayable",
      "type": "function"
    },
    {
      "inputs": [
        {
          "internalType": "uint256",
          "name": "_propertyId",
          "type": "uint256"
        }
      ],
      "name": "completePurchase",
      "outputs": [],
      "stateMutability": "payable",
      "type": "function"
    },
    {
      "inputs": [
        {
          "internalType": "uint256",
          "name": "_propertyId",
          "type": "uint256"
        }
      ],
      "name": "getPropertyDetails",
      "outputs": [
        {
          "internalType": "address",
          "name": "owner",
          "type": "address"
        },
        {
          "internalType": "string",
          "name": "location",
          "type": "string"
        },
        {
          "internalType": "uint256",
          "name": "price",
          "type": "uint256"
        },
        {
          "internalType": "bool",
          "name": "isForSale",
          "type": "bool"
        },
        {
          "internalType": "bool",
          "name": "aiApproved",
          "type": "bool"
        },
        {
          "internalType": "bool",
          "name": "buyerApproved",
          "type": "bool"
        },
        {
          "internalType": "bool",
          "name": "sellerApproved",
          "type": "bool"
        }
      ],
      "stateMutability": "view",
      "type": "function"
    }
  ],
  "bytecode": "0x608060405234801561001057600080fd5b50604051610e78380380610e7883398101604081905261002f91610054565b600280546001600160a01b0319166001600160a01b0392909216919091179055610084565b60006020828403121561006657600080fd5b81516001600160a01b038116811461007d57600080fd5b9392505050565b610de5806100936000396000f3fe6080604052600436106100865760003560e01c8063a224aa4d11610059578063a224aa4d14610141578063bfeee90d14610161578063c361a33514610174578063d2675d5914610198578063f7b10808146101b857600080fd5b8063126dbe431461008b5780632d6628d5146100c757806339efa7f0146100e95780634eda529b14610121575b600080fd5b34801561009757600080fd5b506100ab6100a6366004610a0e565b6101d8565b6040516100be9796959493929190610a6d565b60405180910390f35b3480156100d357600080fd5b506100e76100e2366004610abf565b610333565b005b3480156100f557600080fd5b50600254610109906001600160a01b031681565b6040516001600160a01b0390911681526020016100be565b34801561012d57600080fd5b506100e761013c366004610af4565b610423565b34801561014d57600080fd5b506100e761015c366004610abf565b6104df565b6100e761016f366004610a0e565b6105ce565b34801561018057600080fd5b5061018a60015481565b6040519081526020016100be565b3480156101a457600080fd5b506100e76101b3366004610b2c565b6107f3565b3480156101c457600080fd5b506100ab6101d3366004610a0e565b610934565b600081815260208181526040808320815160e0810190925280546001600160a01b0316825260018101805460609486948594859485948594859493929084019161022190610bdd565b80601f016020809104026020016040519081016040528092919081815260200182805461024d90610bdd565b801561029a5780601f1061026f5761010080835404028352916020019161029a565b820191906000526020600020905b81548152906001019060200180831161027d57829003601f168201915b5050509183525050600282015460208083019190915260039092015460ff8082161515604080850191909152610100830482161515606080860191909152620100008404831615156080808701919091526301000000909404909216151560a0948501528551948601519086015191860151928601519386015160c090960151949f909e50909c50909a50909850919650945092505050565b60008281526020819052604090206003015460ff1661036d5760405162461bcd60e51b815260040161036490610c17565b60405180910390fd5b6000828152602081905260409020546001600160a01b031633036103b6576000828152602081905260409020600301805463ff00000019166301000000831515021790556103db565b6000828152602081905260409020600301805462ff0000191662010000831515021790555b604080518381523360208201526000918101919091527f24272f7e30eaa5aef64eca4b6ec9ef3a5e378298b2aa91b12d272e3a5e5f2493906060015b60405180910390a15050565b60008281526020819052604090205482906001600160a01b0316331461047b5760405162461bcd60e51b815260206004820152600d60248201526c2737ba103a34329037bbb732b960991b6044820152606401610364565b6000838152602081815260409182902060028101859055600301805463ff0000ff1916600117905581518581529081018490527fd2acfbe1632c42ab1e36cabad615126d27fa805ef1e2efc7ceec17c60ffbaafd91015b60405180910390a1505050565b6002546001600160a01b031633146105395760405162461bcd60e51b815260206004820152601f60248201527f4f6e6c792041492076616c696461746f722063616e2063616c6c2074686973006044820152606401610364565b60008281526020819052604090206003015460ff1661056a5760405162461bcd60e51b815260040161036490610c17565b60008281526020818152604091829020600301805461ff00191661010085151502179055815184815233918101919091526001918101919091527f24272f7e30eaa5aef64eca4b6ec9ef3a5e378298b2aa91b12d272e3a5e5f249390606001610417565b6000818152602081905260409020600381015460ff166106005760405162461bcd60e51b815260040161036490610c17565b806002015434146106535760405162461bcd60e51b815260206004820152601860248201527f496e636f7272656374207061796d656e7420616d6f756e7400000000000000006044820152606401610364565b6003810154610100900460ff166106a45760405162461bcd60e51b815260206004820152601560248201527441492076616c69646174696f6e2070656e64696e6760581b6044820152606401610364565b600381015462010000900460ff166106f75760405162461bcd60e51b8152602060048201526016602482015275427579657220617070726f76616c2070656e64696e6760501b6044820152606401610364565b60038101546301000000900460ff166107525760405162461bcd60e51b815260206004820152601760248201527f53656c6c657220617070726f76616c2070656e64696e670000000000000000006044820152606401610364565b80546001600160a01b031981163317825560038201805463ffffffff191690556040516001600160a01b039091169081903480156108fc02916000818181858888f193505050501580156107aa573d6000803e3d6000fd5b50604080518481526001600160a01b038316602082015233918101919091527f2231fc8bc2c20e26d85d66dc7f13a6b6d535c86d2a4d678bb2de61f5b7136083906060016104d2565b6001805490600061080383610c46565b90915550506040805160e08101825233815260208082018481526000838501819052606084018190526080840181905260a0840181905260c084018190526001805482529281905293909320825181546001600160a01b0319166001600160a01b0390911617815592519192919082019061087e9082610cbc565b506040828101516002830155606083015160039092018054608085015160a086015160c090960151151563010000000263ff0000001996151562010000029690961663ffff0000199115156101000261ff00199615159690961661ffff199093169290921794909417939093169290921792909217905560015490517f0f5ddfd7ee384d3acc46aab5b9807217e71933f0c3db67ffbf556452423695f9916109299133908590610d7c565b60405180910390a150565b600060208190529081526040902080546001820180546001600160a01b03909216929161096090610bdd565b80601f016020809104026020016040519081016040528092919081815260200182805461098c90610bdd565b80156109d95780601f106109ae576101008083540402835291602001916109d9565b820191906000526020600020905b8154815290600101906020018083116109bc57829003601f168201915b505050600284015460039094015492939260ff8082169350610100820481169250620100008204811691630100000090041687565b600060208284031215610a2057600080fd5b5035919050565b6000815180845260005b81811015610a4d57602081850181015186830182015201610a31565b506000602082860101526020601f19601f83011685010191505092915050565b6001600160a01b038816815260e060208201819052600090610a9190830189610a27565b60408301979097525093151560608501529115156080840152151560a0830152151560c09091015292915050565b60008060408385031215610ad257600080fd5b8235915060208301358015158114610ae957600080fd5b809150509250929050565b60008060408385031215610b0757600080fd5b50508035926020909101359150565b634e487b7160e01b600052604160045260246000fd5b600060208284031215610b3e57600080fd5b813567ffffffffffffffff80821115610b5657600080fd5b818401915084601f830112610b6a57600080fd5b813581811115610b7c57610b7c610b16565b604051601f8201601f19908116603f01168101908382118183101715610ba457610ba4610b16565b81604052828152876020848701011115610bbd57600080fd5b826020860160208301376000928101602001929092525095945050505050565b600181811c90821680610bf157607f821691505b602082108103610c1157634e487b7160e01b600052602260045260246000fd5b50919050565b60208082526015908201527450726f7065727479206e6f7420666f722073616c6560581b604082015260600190565b600060018201610c6657634e487b7160e01b600052601160045260246000fd5b5060010190565b601f821115610cb757600081815260208120601f850160051c81016020861015610c945750805b601f850160051c820191505b81811015610cb357828155600101610ca0565b5050505b505050565b815167ffffffffffffffff811115610cd657610cd6610b16565b610cea81610ce48454610bdd565b84610c6d565b602080601f831160018114610d1f5760008415610d075750858301515b600019600386901b1c1916600185901b178555610cb3565b600085815260208120601f198616915b82811015610d4e57888601518255948401946001909101908401610d2f565b5085821015610d6c5787850151600019600388901b60f8161c191681555b5050505050600190811b01905550565b8381526001600160a01b0383166020820152606060408201819052600090610da690830184610a27565b9594505050505056fea26469706673582212202be15a70412ff93d0dc0108240c71cae5d6b1817b017d330de799258dae9b44c64736f6c63430008140033",
  "immutableReferences": {},
  "source": "// SPDX-License-Identifier: MIT\r\npragma solidity ^0.8.0;\r\n\r\ncontract RealEstateChain {\r\n    struct Property {\r\n        address owner;\r\n        string location;\r\n        uint256 price;\r\n        bool isForSale;\r\n        bool aiApproved;\r\n        bool buyerApproved;\r\n        bool sellerApproved;\r\n    }\r\n\r\n    mapping(uint256 => Property) public properties;\r\n    uint256 public propertyCount;\r\n    \r\n    address public aiValidator;\r\n    \r\n    event PropertyRegistered(uint256 id, address owner, string location);\r\n    event PropertyListed(uint256 id, uint256 price);\r\n    event ApprovalGiven(uint256 id, address by, bool isAI);\r\n    event PropertyTransferred(uint256 id, address from, address to);\r\n\r\n    modifier onlyOwner(uint256 _propertyId) {\r\n        require(properties[_propertyId].owner == msg.sender, \"Not the owner\");\r\n        _;\r\n    }\r\n\r\n    modifier onlyAI() {\r\n        require(msg.sender == aiValidator, \"Only AI validator can call this\");\r\n        _;\r\n    }\r\n\r\n    constructor(address _aiValidator) {\r\n        aiValidator = _aiValidator;\r\n    }\r\n\r\n    function registerProperty(string memory _location) external {\r\n        propertyCount++;\r\n        properties[propertyCount] = Property({\r\n            owner: msg.sender,\r\n            location: _location,\r\n            price: 0,\r\n            isForSale: false,\r\n            aiApproved: false,\r\n            buyerApproved: false,\r\n            sellerApproved: false\r\n        });\r\n        emit PropertyRegistered(propertyCount, msg.sender, _location);\r\n    }\r\n\r\n    function listProperty(uint256 _propertyId, uint256 _price) external onlyOwner(_propertyId) {\r\n        properties[_propertyId].price = _price;\r\n        properties[_propertyId].isForSale = true;\r\n        properties[_propertyId].sellerApproved = false;\r\n        emit PropertyListed(_propertyId, _price);\r\n    }\r\n\r\n    function approvePurchase(uint256 _propertyId, bool _approval) external {\r\n        require(properties[_propertyId].isForSale, \"Property not for sale\");\r\n        \r\n        if (msg.sender == properties[_propertyId].owner) {\r\n            properties[_propertyId].sellerApproved = _approval;\r\n        } else {\r\n            properties[_propertyId].buyerApproved = _approval;\r\n        }\r\n        \r\n        emit ApprovalGiven(_propertyId, msg.sender, false);\r\n    }\r\n\r\n    function aiApprove(uint256 _propertyId, bool _approval) external onlyAI {\r\n        require(properties[_propertyId].isForSale, \"Property not for sale\");\r\n        properties[_propertyId].aiApproved = _approval;\r\n        emit ApprovalGiven(_propertyId, msg.sender, true);\r\n    }\r\n\r\n    function completePurchase(uint256 _propertyId) external payable {\r\n        Property storage property = properties[_propertyId];\r\n        \r\n        require(property.isForSale, \"Property not for sale\");\r\n        require(msg.value == property.price, \"Incorrect payment amount\");\r\n        require(property.aiApproved, \"AI validation pending\");\r\n        require(property.buyerApproved, \"Buyer approval pending\");\r\n        require(property.sellerApproved, \"Seller approval pending\");\r\n        \r\n        address previousOwner = property.owner;\r\n        \r\n        // Transfer ownership\r\n        property.owner = msg.sender;\r\n        property.isForSale = false;\r\n        property.aiApproved = false;\r\n        property.buyerApproved = false;\r\n        property.sellerApproved = false;\r\n        \r\n        // Transfer funds\r\n        payable(previousOwner).transfer(msg.value);\r\n        \r\n        emit PropertyTransferred(_propertyId, previousOwner, msg.sender);\r\n    }\r\n\r\n    function getPropertyDetails(uint256 _propertyId) external view returns (\r\n        address owner,\r\n        string memory location,\r\n        uint256 price,\r\n        bool isForSale,\r\n        bool aiApproved,\r\n        bool buyerApproved,\r\n        bool sellerApproved\r\n    ) {\r\n        Property memory property = properties[_propertyId];\r\n        return (\r\n            property.owner,\r\n            property.location,\r\n            property.price,\r\n            property.isForSale,\r\n            property.aiApproved,\r\n            property.buyerApproved,\r\n            property.sellerApproved\r\n        );\r\n    }\r\n}",
  "sourcePath": "C:\\Users\\admin\\Desktop\\20k-ka-kya-kare\\blockchain\\contracts\\RealEstateChain.sol",
  "compiler": {
    "name": "solc",
    "version": "0.8.20+commit.a1b79de6.Emscripten.clang"
  },
  "schemaVersion": "3.4.16",
  "updatedAt": "2025-08-05T22:16:06.211Z",
  "devdoc": {
    "kind": "dev",
    "methods": {},
    "version": 1
  },
  "userdoc": {
    "kind": "user",
    "methods": {},
    "version": 1
  }
}