{
  "contractName": "RealEstate",
  "abi": [
    {
      "inputs": [],
      "stateMutability": "payable",
      "type": "constructor"
    },
    {
      "anonymous": false,
      "inputs": [
        {
          "indexed": false,
          "internalType": "uint256",
          "name": "id",
          "type": "uint256"
        },
        {
          "indexed": true,
          "internalType": "address",
          "name": "owner",
          "type": "address"
        },
        {
          "indexed": false,
          "internalType": "string",
          "name": "location",
          "type": "string"
        },
        {
          "indexed": false,
          "internalType": "uint256",
          "name": "price",
          "type": "uint256"
        }
      ],
      "name": "PropertyCreated",
      "type": "event"
    },
    {
      "anonymous": false,
      "inputs": [
        {
          "indexed": false,
          "internalType": "uint256",
          "name": "id",
          "type": "uint256"
        },
        {
          "indexed": true,
          "internalType": "address",
          "name": "from",
          "type": "address"
        },
        {
          "indexed": true,
          "internalType": "address",
          "name": "to",
          "type": "address"
        },
        {
          "indexed": false,
          "internalType": "uint256",
          "name": "price",
          "type": "uint256"
        }
      ],
      "name": "PropertyTransferred",
      "type": "event"
    },
    {
      "inputs": [],
      "name": "nextId",
      "outputs": [
        {
          "internalType": "uint256",
          "name": "",
          "type": "uint256"
        }
      ],
      "stateMutability": "view",
      "type": "function"
    },
    {
      "inputs": [
        {
          "internalType": "uint256",
          "name": "",
          "type": "uint256"
        },
        {
          "internalType": "uint256",
          "name": "",
          "type": "uint256"
        }
      ],
      "name": "ownershipHistory",
      "outputs": [
        {
          "internalType": "address",
          "name": "",
          "type": "address"
        }
      ],
      "stateMutability": "view",
      "type": "function"
    },
    {
      "inputs": [
        {
          "internalType": "uint256",
          "name": "",
          "type": "uint256"
        }
      ],
      "name": "properties",
      "outputs": [
        {
          "internalType": "uint256",
          "name": "id",
          "type": "uint256"
        },
        {
          "internalType": "address",
          "name": "owner",
          "type": "address"
        },
        {
          "internalType": "string",
          "name": "location",
          "type": "string"
        },
        {
          "internalType": "uint256",
          "name": "price",
          "type": "uint256"
        },
        {
          "internalType": "bool",
          "name": "isSold",
          "type": "bool"
        },
        {
          "internalType": "string",
          "name": "documentHash",
          "type": "string"
        }
      ],
      "stateMutability": "view",
      "type": "function"
    },
    {
      "inputs": [
        {
          "internalType": "string",
          "name": "_location",
          "type": "string"
        },
        {
          "internalType": "uint256",
          "name": "_price",
          "type": "uint256"
        },
        {
          "internalType": "string",
          "name": "_documentHash",
          "type": "string"
        }
      ],
      "name": "createProperty",
      "outputs": [],
      "stateMutability": "nonpayable",
      "type": "function"
    },
    {
      "inputs": [
        {
          "internalType": "uint256",
          "name": "_id",
          "type": "uint256"
        },
        {
          "internalType": "address",
          "name": "_to",
          "type": "address"
        }
      ],
      "name": "transferProperty",
      "outputs": [],
      "stateMutability": "nonpayable",
      "type": "function"
    },
    {
      "inputs": [
        {
          "internalType": "uint256",
          "name": "_id",
          "type": "uint256"
        }
      ],
      "name": "getPropertyBasic",
      "outputs": [
        {
          "internalType": "uint256",
          "name": "id",
          "type": "uint256"
        },
        {
          "internalType": "address",
          "name": "owner",
          "type": "address"
        },
        {
          "internalType": "string",
          "name": "location",
          "type": "string"
        },
        {
          "internalType": "uint256",
          "name": "price",
          "type": "uint256"
        },
        {
          "internalType": "bool",
          "name": "isSold",
          "type": "bool"
        }
      ],
      "stateMutability": "view",
      "type": "function"
    },
    {
      "inputs": [
        {
          "internalType": "uint256",
          "name": "_id",
          "type": "uint256"
        }
      ],
      "name": "getPropertyDetails",
      "outputs": [
        {
          "internalType": "string",
          "name": "documentHash",
          "type": "string"
        },
        {
          "internalType": "address[]",
          "name": "ownersHistory",
          "type": "address[]"
        }
      ],
      "stateMutability": "view",
      "type": "function"
    }
  ],
  "bytecode": "0x608060405260015f55610c0a806100155f395ff3fe608060405234801561000f575f80fd5b506004361061007a575f3560e01c8063c9cf2adc11610058578063c9cf2adc146100e2578063ece2f43f1461010d578063f7b1080814610122578063ff35623714610147575f80fd5b8063126dbe431461007e57806361b8ce8c146100a8578063bc55b727146100be575b5f80fd5b61009161008c366004610798565b61015a565b60405161009f9291906107f2565b60405180910390f35b6100b05f5481565b60405190815260200161009f565b6100d16100cc366004610798565b61026b565b60405161009f959493929190610850565b6100f56100f0366004610892565b61034c565b6040516001600160a01b03909116815260200161009f565b61012061011b36600461094f565b610380565b005b610135610130366004610798565b6104c1565b60405161009f969594939291906109b7565b610120610155366004610a0d565b610614565b5f818152600160209081526040808320600290925290912060059091018054606092839291829061018a90610a46565b80601f01602080910402602001604051908101604052809291908181526020018280546101b690610a46565b80156102015780601f106101d857610100808354040283529160200191610201565b820191905f5260205f20905b8154815290600101906020018083116101e457829003601f168201915b505050505091508080548060200260200160405190810160405280929190818152602001828054801561025b57602002820191905f5260205f20905b81546001600160a01b0316815260019091019060200180831161023d575b5050505050905091509150915091565b5f818152600160208190526040822080549181015460038201546004830154600284018054879660609688968796919592946001600160a01b0390911693909260ff169083906102ba90610a46565b80601f01602080910402602001604051908101604052809291908181526020018280546102e690610a46565b80156103315780601f1061030857610100808354040283529160200191610331565b820191905f5260205f20905b81548152906001019060200180831161031457829003601f168201915b50505050509250955095509550955095505091939590929450565b6002602052815f5260405f208181548110610365575f80fd5b5f918252602090912001546001600160a01b03169150829050565b6040805160c0810182525f8054808352336020808501918252848601898152606086018990526080860185905260a086018890529284526001908190529490922083518155915193820180546001600160a01b0319166001600160a01b0390951694909417909355915190919060028201906103fc9082610acc565b5060608201516003820155608082015160048201805460ff191691151591909117905560a082015160058201906104339082610acc565b50505f80548152600260209081526040808320805460018101825590845291832090910180546001600160a01b03191633908117909155915490519192507fba29aff6226defaed7a3d82c1d901aaf08d90f829cd313ebfedc69c3769f3e84916104a1919087908790610b88565b60405180910390a25f805490806104b783610bb0565b9190505550505050565b600160208190525f91825260409091208054918101546002820180546001600160a01b0390921692916104f390610a46565b80601f016020809104026020016040519081016040528092919081815260200182805461051f90610a46565b801561056a5780601f106105415761010080835404028352916020019161056a565b820191905f5260205f20905b81548152906001019060200180831161054d57829003601f168201915b50505050600383015460048401546005850180549495929460ff90921693509061059390610a46565b80601f01602080910402602001604051908101604052809291908181526020018280546105bf90610a46565b801561060a5780601f106105e15761010080835404028352916020019161060a565b820191905f5260205f20905b8154815290600101906020018083116105ed57829003601f168201915b5050505050905086565b5f828152600160208190526040909120908101546001600160a01b031633146106705760405162461bcd60e51b81526020600482015260096024820152682737ba1037bbb732b960b91b60448201526064015b60405180910390fd5b600481015460ff16156106b45760405162461bcd60e51b815260206004820152600c60248201526b105b1c9958591e481cdbdb1960a21b6044820152606401610667565b6001600160a01b0382166106fc5760405162461bcd60e51b815260206004820152600f60248201526e496e76616c6964206164647265737360881b6044820152606401610667565b600181810180546001600160a01b0385166001600160a01b0319918216811790925560048401805460ff1916841790555f86815260026020908152604080832080549687018155835291819020909401805490921683179091556003840154815187815293840152909133917fa57b4707b863fa4d85ff792987d8e13ff99ac4c4f237969e628682fbe257dcb7910160405180910390a3505050565b5f602082840312156107a8575f80fd5b5035919050565b5f81518084525f5b818110156107d3576020818501810151868301820152016107b7565b505f602082860101526020601f19601f83011685010191505092915050565b604081525f61080460408301856107af565b8281036020848101919091528451808352858201928201905f5b818110156108435784516001600160a01b03168352938301939183019160010161081e565b5090979650505050505050565b8581526001600160a01b038516602082015260a0604082018190525f90610879908301866107af565b6060830194909452509015156080909101529392505050565b5f80604083850312156108a3575f80fd5b50508035926020909101359150565b634e487b7160e01b5f52604160045260245ffd5b5f82601f8301126108d5575f80fd5b813567ffffffffffffffff808211156108f0576108f06108b2565b604051601f8301601f19908116603f01168101908282118183101715610918576109186108b2565b81604052838152866020858801011115610930575f80fd5b836020870160208301375f602085830101528094505050505092915050565b5f805f60608486031215610961575f80fd5b833567ffffffffffffffff80821115610978575f80fd5b610984878388016108c6565b94506020860135935060408601359150808211156109a0575f80fd5b506109ad868287016108c6565b9150509250925092565b8681526001600160a01b038616602082015260c0604082018190525f906109e0908301876107af565b856060840152841515608084015282810360a0840152610a0081856107af565b9998505050505050505050565b5f8060408385031215610a1e575f80fd5b8235915060208301356001600160a01b0381168114610a3b575f80fd5b809150509250929050565b600181811c90821680610a5a57607f821691505b602082108103610a7857634e487b7160e01b5f52602260045260245ffd5b50919050565b601f821115610ac7575f81815260208120601f850160051c81016020861015610aa45750805b601f850160051c820191505b81811015610ac357828155600101610ab0565b5050505b505050565b815167ffffffffffffffff811115610ae657610ae66108b2565b610afa81610af48454610a46565b84610a7e565b602080601f831160018114610b2d575f8415610b165750858301515b5f19600386901b1c1916600185901b178555610ac3565b5f85815260208120601f198616915b82811015610b5b57888601518255948401946001909101908401610b3c565b5085821015610b7857878501515f19600388901b60f8161c191681555b5050505050600190811b01905550565b838152606060208201525f610ba060608301856107af565b9050826040830152949350505050565b5f60018201610bcd57634e487b7160e01b5f52601160045260245ffd5b506001019056fea26469706673582212208ebd4cfc82516e5b38598e879812ca8ad9ff427c840778ee1e7d2987005439c264736f6c63430008140033",
  "immutableReferences": {},
  "source": "// SPDX-License-Identifier: MIT\r\npragma solidity ^0.8.0;\r\n\r\ncontract RealEstate {\r\n    uint256 public nextId = 1;\r\n    \r\n    // Add this explicit constructor\r\n    constructor() payable {} \r\n\r\n    struct Property {\r\n        uint256 id;\r\n        address owner;\r\n        string location;\r\n        uint256 price;\r\n        bool isSold;\r\n        string documentHash;\r\n    }\r\n\r\n    mapping(uint256 => Property) public properties;\r\n    mapping(uint256 => address[]) public ownershipHistory;\r\n\r\n    event PropertyCreated(uint256 id, address indexed owner, string location, uint256 price);\r\n    event PropertyTransferred(uint256 id, address indexed from, address indexed to, uint256 price);\r\n\r\n    function createProperty(string memory _location, uint256 _price, string memory _documentHash) public {\r\n        properties[nextId] = Property(nextId, msg.sender, _location, _price, false, _documentHash);\r\n        ownershipHistory[nextId].push(msg.sender);\r\n        emit PropertyCreated(nextId, msg.sender, _location, _price);\r\n        nextId++;\r\n    }\r\n\r\n    function transferProperty(uint256 _id, address _to) public {\r\n        Property storage property = properties[_id];\r\n        require(property.owner == msg.sender, \"Not owner\");\r\n        require(!property.isSold, \"Already sold\");\r\n        require(_to != address(0), \"Invalid address\");\r\n\r\n        property.owner = _to;\r\n        property.isSold = true;\r\n        ownershipHistory[_id].push(_to);\r\n\r\n        emit PropertyTransferred(_id, msg.sender, _to, property.price);\r\n    }\r\n\r\n    function getPropertyBasic(uint256 _id) public view returns (\r\n        uint256 id,\r\n        address owner,\r\n        string memory location,\r\n        uint256 price,\r\n        bool isSold\r\n    ) {\r\n        Property storage prop = properties[_id];\r\n        return (prop.id, prop.owner, prop.location, prop.price, prop.isSold);\r\n    }\r\n\r\n    function getPropertyDetails(uint256 _id) public view returns (\r\n        string memory documentHash,\r\n        address[] memory ownersHistory\r\n    ) {\r\n        return (properties[_id].documentHash, ownershipHistory[_id]);\r\n    }\r\n}",
  "sourcePath": "C:\\Users\\admin\\Desktop\\20k-ka-kya-kare\\blockchain\\contracts\\RealEstate.sol",
  "compiler": {
    "name": "solc",
    "version": "0.8.20+commit.a1b79de6.Emscripten.clang"
  },
  "schemaVersion": "3.4.16",
  "updatedAt": "2025-08-05T14:52:35.826Z",
  "devdoc": {
    "kind": "dev",
    "methods": {},
    "version": 1
  },
  "userdoc": {
    "kind": "user",
    "methods": {},
    "version": 1
  }
}