{
  "contractName": "RealEstateChain",
  "abi": [
    {
      "inputs": [
        {
          "internalType": "address",
          "name": "_aiValidator",
          "type": "address"
        }
      ],
      "stateMutability": "nonpayable",
      "type": "constructor"
    },
    {
      "anonymous": false,
      "inputs": [
        {
          "indexed": false,
          "internalType": "uint256",
          "name": "id",
          "type": "uint256"
        },
        {
          "indexed": false,
          "internalType": "address",
          "name": "by",
          "type": "address"
        },
        {
          "indexed": false,
          "internalType": "bool",
          "name": "isAI",
          "type": "bool"
        }
      ],
      "name": "ApprovalGiven",
      "type": "event"
    },
    {
      "anonymous": false,
      "inputs": [
        {
          "indexed": false,
          "internalType": "uint256",
          "name": "id",
          "type": "uint256"
        },
        {
          "indexed": false,
          "internalType": "uint256",
          "name": "newPrice",
          "type": "uint256"
        }
      ],
      "name": "PropertyListed",
      "type": "event"
    },
    {
      "anonymous": false,
      "inputs": [
        {
          "indexed": false,
          "internalType": "uint256",
          "name": "id",
          "type": "uint256"
        },
        {
          "indexed": false,
          "internalType": "address",
          "name": "owner",
          "type": "address"
        },
        {
          "indexed": false,
          "internalType": "string",
          "name": "location",
          "type": "string"
        },
        {
          "indexed": false,
          "internalType": "string",
          "name": "metadataURI",
          "type": "string"
        },
        {
          "indexed": false,
          "internalType": "uint256",
          "name": "price",
          "type": "uint256"
        }
      ],
      "name": "PropertyRegistered",
      "type": "event"
    },
    {
      "anonymous": false,
      "inputs": [
        {
          "indexed": false,
          "internalType": "uint256",
          "name": "id",
          "type": "uint256"
        },
        {
          "indexed": false,
          "internalType": "address",
          "name": "from",
          "type": "address"
        },
        {
          "indexed": false,
          "internalType": "address",
          "name": "to",
          "type": "address"
        },
        {
          "indexed": false,
          "internalType": "uint256",
          "name": "price",
          "type": "uint256"
        }
      ],
      "name": "PropertyTransferred",
      "type": "event"
    },
    {
      "inputs": [],
      "name": "aiValidator",
      "outputs": [
        {
          "internalType": "address",
          "name": "",
          "type": "address"
        }
      ],
      "stateMutability": "view",
      "type": "function",
      "constant": true
    },
    {
      "inputs": [
        {
          "internalType": "uint256",
          "name": "",
          "type": "uint256"
        }
      ],
      "name": "properties",
      "outputs": [
        {
          "internalType": "address",
          "name": "owner",
          "type": "address"
        },
        {
          "internalType": "string",
          "name": "location",
          "type": "string"
        },
        {
          "internalType": "uint256",
          "name": "price",
          "type": "uint256"
        },
        {
          "internalType": "bool",
          "name": "isForSale",
          "type": "bool"
        },
        {
          "internalType": "bool",
          "name": "aiApproved",
          "type": "bool"
        },
        {
          "internalType": "bool",
          "name": "buyerApproved",
          "type": "bool"
        },
        {
          "internalType": "bool",
          "name": "sellerApproved",
          "type": "bool"
        },
        {
          "internalType": "string",
          "name": "metadataURI",
          "type": "string"
        }
      ],
      "stateMutability": "view",
      "type": "function",
      "constant": true
    },
    {
      "inputs": [],
      "name": "propertyCount",
      "outputs": [
        {
          "internalType": "uint256",
          "name": "",
          "type": "uint256"
        }
      ],
      "stateMutability": "view",
      "type": "function",
      "constant": true
    },
    {
      "inputs": [
        {
          "internalType": "string",
          "name": "_location",
          "type": "string"
        },
        {
          "internalType": "string",
          "name": "_metadataURI",
          "type": "string"
        },
        {
          "internalType": "uint256",
          "name": "_priceInWei",
          "type": "uint256"
        }
      ],
      "name": "registerProperty",
      "outputs": [],
      "stateMutability": "nonpayable",
      "type": "function"
    },
    {
      "inputs": [
        {
          "internalType": "uint256",
          "name": "_propertyId",
          "type": "uint256"
        },
        {
          "internalType": "uint256",
          "name": "_newPriceInWei",
          "type": "uint256"
        },
        {
          "internalType": "bool",
          "name": "_listForSale",
          "type": "bool"
        }
      ],
      "name": "updateListing",
      "outputs": [],
      "stateMutability": "nonpayable",
      "type": "function"
    },
    {
      "inputs": [
        {
          "internalType": "uint256",
          "name": "_propertyId",
          "type": "uint256"
        },
        {
          "internalType": "bool",
          "name": "_approval",
          "type": "bool"
        }
      ],
      "name": "approvePurchase",
      "outputs": [],
      "stateMutability": "nonpayable",
      "type": "function"
    },
    {
      "inputs": [
        {
          "internalType": "uint256",
          "name": "_propertyId",
          "type": "uint256"
        },
        {
          "internalType": "bool",
          "name": "_approval",
          "type": "bool"
        }
      ],
      "name": "aiApprove",
      "outputs": [],
      "stateMutability": "nonpayable",
      "type": "function"
    },
    {
      "inputs": [
        {
          "internalType": "uint256",
          "name": "_propertyId",
          "type": "uint256"
        }
      ],
      "name": "completePurchase",
      "outputs": [],
      "stateMutability": "payable",
      "type": "function",
      "payable": true
    },
    {
      "inputs": [
        {
          "internalType": "uint256",
          "name": "_propertyId",
          "type": "uint256"
        }
      ],
      "name": "getPropertyDetails",
      "outputs": [
        {
          "internalType": "address",
          "name": "owner",
          "type": "address"
        },
        {
          "internalType": "string",
          "name": "location",
          "type": "string"
        },
        {
          "internalType": "uint256",
          "name": "price",
          "type": "uint256"
        },
        {
          "internalType": "bool",
          "name": "isForSale",
          "type": "bool"
        },
        {
          "internalType": "bool",
          "name": "aiApproved",
          "type": "bool"
        },
        {
          "internalType": "bool",
          "name": "buyerApproved",
          "type": "bool"
        },
        {
          "internalType": "bool",
          "name": "sellerApproved",
          "type": "bool"
        }
      ],
      "stateMutability": "view",
      "type": "function",
      "constant": true
    }
  ],
  "bytecode": "0x60a060405234801561001057600080fd5b506040516111bf3803806111bf83398101604081905261002f91610040565b6001600160a01b0316608052610070565b60006020828403121561005257600080fd5b81516001600160a01b038116811461006957600080fd5b9392505050565b60805161112e6100916000396000818160fb01526104e5015261112e6000f3fe6080604052600436106100865760003560e01c8063bfeee90d11610059578063bfeee90d14610155578063c361a33514610168578063d0008e5b1461018c578063dda12b4b146101ac578063f7b10808146101cc57600080fd5b8063126dbe431461008b5780632d6628d5146100c757806339efa7f0146100e9578063a224aa4d14610135575b600080fd5b34801561009757600080fd5b506100ab6100a6366004610c65565b610200565b6040516100be9796959493929190610cc4565b60405180910390f35b3480156100d357600080fd5b506100e76100e2366004610d2b565b6103ea565b005b3480156100f557600080fd5b5061011d7f000000000000000000000000000000000000000000000000000000000000000081565b6040516001600160a01b0390911681526020016100be565b34801561014157600080fd5b506100e7610150366004610d2b565b6104da565b6100e7610163366004610c65565b6105e4565b34801561017457600080fd5b5061017e60005481565b6040519081526020016100be565b34801561019857600080fd5b506100e76101a7366004610dfa565b61081f565b3480156101b857600080fd5b506100e76101c7366004610e67565b6109c3565b3480156101d857600080fd5b506101ec6101e7366004610c65565b610af7565b6040516100be989796959493929190610e9c565b60008181526001602081815260408084208151610100810190925280546001600160a01b03168252928301805460609486948594859485948594859490929084019161024b90610f0a565b80601f016020809104026020016040519081016040528092919081815260200182805461027790610f0a565b80156102c45780601f10610299576101008083540402835291602001916102c4565b820191906000526020600020905b8154815290600101906020018083116102a757829003601f168201915b505050918352505060028201546020820152600382015460ff808216151560408401526101008204811615156060840152620100008204811615156080840152630100000090910416151560a082015260048201805460c09092019161032990610f0a565b80601f016020809104026020016040519081016040528092919081815260200182805461035590610f0a565b80156103a25780601f10610377576101008083540402835291602001916103a2565b820191906000526020600020905b81548152906001019060200180831161038557829003601f168201915b5050505050815250509050806000015181602001518260400151836060015184608001518560a001518660c00151975097509750975097509750975050919395979092949650565b60008281526001602052604090206003015460ff166104245760405162461bcd60e51b815260040161041b90610f44565b60405180910390fd5b6000828152600160205260409020546001600160a01b0316330361046d576000828152600160205260409020600301805463ff0000001916630100000083151502179055610492565b6000828152600160205260409020600301805462ff0000191662010000831515021790555b604080518381523360208201526000918101919091527f24272f7e30eaa5aef64eca4b6ec9ef3a5e378298b2aa91b12d272e3a5e5f2493906060015b60405180910390a15050565b336001600160a01b037f000000000000000000000000000000000000000000000000000000000000000016146105525760405162461bcd60e51b815260206004820152601f60248201527f4f6e6c792041492076616c696461746f722063616e2063616c6c207468697300604482015260640161041b565b60008281526001602052604090206003015460ff166105835760405162461bcd60e51b815260040161041b90610f44565b600082815260016020818152604092839020600301805461ff0019166101008615150217905582518581523391810191909152918201527f24272f7e30eaa5aef64eca4b6ec9ef3a5e378298b2aa91b12d272e3a5e5f2493906060016104ce565b6000818152600160205260409020600381015460ff166106165760405162461bcd60e51b815260040161041b90610f44565b806002015434146106695760405162461bcd60e51b815260206004820152601860248201527f496e636f7272656374207061796d656e7420616d6f756e740000000000000000604482015260640161041b565b6003810154610100900460ff166106ba5760405162461bcd60e51b815260206004820152601560248201527441492076616c69646174696f6e2070656e64696e6760581b604482015260640161041b565b600381015462010000900460ff1661070d5760405162461bcd60e51b8152602060048201526016602482015275427579657220617070726f76616c2070656e64696e6760501b604482015260640161041b565b60038101546301000000900460ff166107685760405162461bcd60e51b815260206004820152601760248201527f53656c6c657220617070726f76616c2070656e64696e67000000000000000000604482015260640161041b565b80546001600160a01b031981163317825560038201805463ffffffff191690556040516001600160a01b039091169081903480156108fc02916000818181858888f193505050501580156107c0573d6000803e3d6000fd5b506002820154604080518581526001600160a01b0384166020820152339181019190915260608101919091527fa57b4707b863fa4d85ff792987d8e13ff99ac4c4f237969e628682fbe257dcb7906080015b60405180910390a1505050565b6706f05b59d3b200008110156108725760405162461bcd60e51b815260206004820152601860248201527709ad2dcd2daeada40e0e4d2c6ca40d2e640605c6a408aa8960431b604482015260640161041b565b60008054908061088183610f73565b9091555050604080516101008101825233815260208082018681528284018590526000606084018190526080840181905260a0840181905260c0840181905260e084018790528054815260019283905293909320825181546001600160a01b0319166001600160a01b039091161781559251919291908201906109049082610fe9565b50604082015160028201556060820151600382018054608085015160a086015160c0870151151563010000000263ff0000001991151562010000029190911663ffff0000199215156101000261ff00199615159690961661ffff199094169390931794909417161791909117905560e082015160048201906109869082610fe9565b509050507ff78be3c6305ed1d283f13636ed7ad55fea081be8d7083f165b2ad514df8cadd3600054338585856040516108129594939291906110a9565b60008381526001602052604090205483906001600160a01b03163314610a1b5760405162461bcd60e51b815260206004820152600d60248201526c2737ba103a34329037bbb732b960991b604482015260640161041b565b6706f05b59d3b20000831015610a6e5760405162461bcd60e51b815260206004820152601860248201527709ad2dcd2daeada40e0e4d2c6ca40d2e640605c6a408aa8960431b604482015260640161041b565b600084815260016020526040902060028101849055600301805460ff19168315801591909117909155610ab8576000848152600160205260409020600301805463ffffff00191690555b60408051858152602081018590527fd2acfbe1632c42ab1e36cabad615126d27fa805ef1e2efc7ceec17c60ffbaafd910160405180910390a150505050565b6001602081905260009182526040909120805491810180546001600160a01b0390931692610b2490610f0a565b80601f0160208091040260200160405190810160405280929190818152602001828054610b5090610f0a565b8015610b9d5780601f10610b7257610100808354040283529160200191610b9d565b820191906000526020600020905b815481529060010190602001808311610b8057829003601f168201915b505050600284015460038501546004860180549596929560ff8084169650610100840481169550620100008404811694630100000090940416929190610be290610f0a565b80601f0160208091040260200160405190810160405280929190818152602001828054610c0e90610f0a565b8015610c5b5780601f10610c3057610100808354040283529160200191610c5b565b820191906000526020600020905b815481529060010190602001808311610c3e57829003601f168201915b5050505050905088565b600060208284031215610c7757600080fd5b5035919050565b6000815180845260005b81811015610ca457602081850181015186830182015201610c88565b506000602082860101526020601f19601f83011685010191505092915050565b6001600160a01b038816815260e060208201819052600090610ce890830189610c7e565b60408301979097525093151560608501529115156080840152151560a0830152151560c09091015292915050565b80358015158114610d2657600080fd5b919050565b60008060408385031215610d3e57600080fd5b82359150610d4e60208401610d16565b90509250929050565b634e487b7160e01b600052604160045260246000fd5b600082601f830112610d7e57600080fd5b813567ffffffffffffffff80821115610d9957610d99610d57565b604051601f8301601f19908116603f01168101908282118183101715610dc157610dc1610d57565b81604052838152866020858801011115610dda57600080fd5b836020870160208301376000602085830101528094505050505092915050565b600080600060608486031215610e0f57600080fd5b833567ffffffffffffffff80821115610e2757600080fd5b610e3387838801610d6d565b94506020860135915080821115610e4957600080fd5b50610e5686828701610d6d565b925050604084013590509250925092565b600080600060608486031215610e7c57600080fd5b8335925060208401359150610e9360408501610d16565b90509250925092565b6001600160a01b038916815261010060208201819052600090610ec18382018b610c7e565b90508860408401528715156060840152861515608084015285151560a084015284151560c084015282810360e0840152610efb8185610c7e565b9b9a5050505050505050505050565b600181811c90821680610f1e57607f821691505b602082108103610f3e57634e487b7160e01b600052602260045260246000fd5b50919050565b60208082526015908201527450726f7065727479206e6f7420666f722073616c6560581b604082015260600190565b600060018201610f9357634e487b7160e01b600052601160045260246000fd5b5060010190565b601f821115610fe457600081815260208120601f850160051c81016020861015610fc15750805b601f850160051c820191505b81811015610fe057828155600101610fcd565b5050505b505050565b815167ffffffffffffffff81111561100357611003610d57565b611017816110118454610f0a565b84610f9a565b602080601f83116001811461104c57600084156110345750858301515b600019600386901b1c1916600185901b178555610fe0565b600085815260208120601f198616915b8281101561107b5788860151825594840194600190910190840161105c565b50858210156110995787850151600019600388901b60f8161c191681555b5050505050600190811b01905550565b8581526001600160a01b038516602082015260a0604082018190526000906110d390830186610c7e565b82810360608401526110e58186610c7e565b915050826080830152969550505050505056fea2646970667358221220858c997e6917dc76a3952ee8c273c0bc3e0a4eb95adada155b0e4833e458e97364736f6c63430008140033",
  "immutableReferences": {
    "67": [
      {
        "length": 32,
        "start": 251
      },
      {
        "length": 32,
        "start": 1253
      }
    ]
  },
  "source": "// SPDX-License-Identifier: MIT\r\npragma solidity ^0.8.0;\r\n\r\ncontract RealEstateChain {\r\n    struct Property {\r\n        address owner;\r\n        string location;\r\n        uint256 price; // Price in Wei\r\n        bool isForSale;\r\n        bool aiApproved;\r\n        bool buyerApproved;\r\n        bool sellerApproved;\r\n        string metadataURI;\r\n    }\r\n\r\n    uint256 public propertyCount;\r\n    mapping(uint256 => Property) public properties;\r\n    \r\n    address public immutable aiValidator;\r\n    \r\n    event PropertyRegistered(uint256 id, address owner, string location, string metadataURI, uint256 price);\r\n    event PropertyListed(uint256 id, uint256 newPrice);\r\n    event ApprovalGiven(uint256 id, address by, bool isAI);\r\n    event PropertyTransferred(uint256 id, address from, address to, uint256 price);\r\n\r\n    modifier onlyOwner(uint256 _propertyId) {\r\n        require(properties[_propertyId].owner == msg.sender, \"Not the owner\");\r\n        _;\r\n    }\r\n\r\n    modifier onlyAI() {\r\n        require(msg.sender == aiValidator, \"Only AI validator can call this\");\r\n        _;\r\n    }\r\n\r\n    constructor(address _aiValidator) {\r\n        aiValidator = _aiValidator;\r\n    }\r\n\r\n    function registerProperty(\r\n        string memory _location,\r\n        string memory _metadataURI,\r\n        uint256 _priceInWei // Now expects price in Wei directly\r\n    ) external {\r\n        require(_priceInWei >= 0.5 ether, \"Minimum price is 0.5 ETH\");\r\n        \r\n        propertyCount++;\r\n        properties[propertyCount] = Property({\r\n            owner: msg.sender,\r\n            location: _location,\r\n            price: _priceInWei,\r\n            isForSale: false,\r\n            aiApproved: false,\r\n            buyerApproved: false,\r\n            sellerApproved: false,\r\n            metadataURI: _metadataURI\r\n        });\r\n        emit PropertyRegistered(propertyCount, msg.sender, _location, _metadataURI, _priceInWei);\r\n    }\r\n\r\n    function updateListing(uint256 _propertyId, uint256 _newPriceInWei, bool _listForSale) external onlyOwner(_propertyId) {\r\n        require(_newPriceInWei >= 0.5 ether, \"Minimum price is 0.5 ETH\");\r\n        \r\n        properties[_propertyId].price = _newPriceInWei;\r\n        properties[_propertyId].isForSale = _listForSale;\r\n        if (_listForSale) {\r\n            properties[_propertyId].aiApproved = false;\r\n            properties[_propertyId].buyerApproved = false;\r\n            properties[_propertyId].sellerApproved = false;\r\n        }\r\n        emit PropertyListed(_propertyId, _newPriceInWei);\r\n    }\r\n\r\n    function approvePurchase(uint256 _propertyId, bool _approval) external {\r\n        require(properties[_propertyId].isForSale, \"Property not for sale\");\r\n        \r\n        if (msg.sender == properties[_propertyId].owner) {\r\n            properties[_propertyId].sellerApproved = _approval;\r\n        } else {\r\n            properties[_propertyId].buyerApproved = _approval;\r\n        }\r\n        \r\n        emit ApprovalGiven(_propertyId, msg.sender, false);\r\n    }\r\n\r\n    function aiApprove(uint256 _propertyId, bool _approval) external onlyAI {\r\n        require(properties[_propertyId].isForSale, \"Property not for sale\");\r\n        properties[_propertyId].aiApproved = _approval;\r\n        emit ApprovalGiven(_propertyId, msg.sender, true);\r\n    }\r\n\r\n    function completePurchase(uint256 _propertyId) external payable {\r\n        Property storage property = properties[_propertyId];\r\n        \r\n        require(property.isForSale, \"Property not for sale\");\r\n        require(msg.value == property.price, \"Incorrect payment amount\");\r\n        require(property.aiApproved, \"AI validation pending\");\r\n        require(property.buyerApproved, \"Buyer approval pending\");\r\n        require(property.sellerApproved, \"Seller approval pending\");\r\n        \r\n        address previousOwner = property.owner;\r\n        \r\n        // Transfer ownership\r\n        property.owner = msg.sender;\r\n        property.isForSale = false;\r\n        property.aiApproved = false;\r\n        property.buyerApproved = false;\r\n        property.sellerApproved = false;\r\n        \r\n        // Transfer funds\r\n        payable(previousOwner).transfer(msg.value);\r\n        \r\n        emit PropertyTransferred(_propertyId, previousOwner, msg.sender, property.price);\r\n    }\r\n\r\n    function getPropertyDetails(uint256 _propertyId) external view returns (\r\n    address owner,\r\n    string memory location,\r\n    uint256 price,\r\n    bool isForSale,\r\n    bool aiApproved,\r\n    bool buyerApproved,\r\n    bool sellerApproved\r\n) {\r\n    Property memory property = properties[_propertyId];\r\n    return (\r\n        property.owner,\r\n        property.location,\r\n        property.price,\r\n        property.isForSale,\r\n        property.aiApproved,\r\n        property.buyerApproved,\r\n        property.sellerApproved\r\n    );\r\n  }\r\n}",
  "sourcePath": "C:\\Users\\srina\\OneDrive\\Desktop\\20k-ka-kya-kare\\blockchain\\contracts\\RealEstateChain.sol",
  "compiler": {
    "name": "solc",
    "version": "0.8.20+commit.a1b79de6.Emscripten.clang"
  },
  "schemaVersion": "3.4.16",
  "updatedAt": "2025-08-06T04:11:44.730Z",
  "networkType": "ethereum",
  "devdoc": {
    "kind": "dev",
    "methods": {},
    "version": 1
  },
  "userdoc": {
    "kind": "user",
    "methods": {},
    "version": 1
  }
}